:020000040000FA
:0400000028EF2CF0C9
:10583200070E93160F0E9512120067C001F068C092
:1058420002F01200000ECA6E000EBD6E120000EED3
:1058520063F00D0EEE6AE806FDE1000EF86E00013F
:1058620069EF3BF0000E016E012A180E01643CEF55
:105872002CF03EEF2CF035EF2CF012009494030E36
:10588200CA12CA840C0EBD6E000E106E640E0F6E2C
:1058920067EC2CF012002C0EAC6E900EAB6E080E64
:1058A200B86E000EB06E220EAF6E948C948E120003
:1058B200000E026E33EC2CF0022A310E026464EF09
:1058C2002CF066EF2CF05BEF2CF01200480E016E0C
:1058D200E80E026E010E036E000E046E0FC005F09C
:1058E20010C006F0076A086AD3EC31F00104CB6EEF
:1058F200120008500A02F3CF0CF0F4CF0DF008505A
:105902000B02F3500D2609500A02F3500D260CC06B
:1059120008F00DC009F01200000E026E030E016EB7
:10592200000E046E000E036E60EC36F0000E026E86
:10593200040E016E000E046E000E036E60EC36F073
:10594200000E026E050E016E000E046E000E036E56
:1059520060EC36F0000E956E1200000E026E000E24
:10596200016E000E046E000E036E034A042A04BE8A
:10597200C4EF2CF0E80E035C030E0458D8A0C4EF69
:105982002CF0C6EF2CF0B6EF2CF0014A022A02BE30
:10599200D4EF2CF0025009E10F0E015CD8A0D4EF35
:1059A2002CF0D6EF2CF0B2EF2CF01200000E026EAB
:1059B200020E016E000E046E000E036E39EC35F01D
:1059C200000E026E030E016E000E046E000E036ED8
:1059D20039EC35F0000E026E040E016E000E046EFC
:1059E200000E036E39EC35F0000E026E050E016EEC
:1059F200000E046E000E036E39EC35F01200076ED5
:105A020083CF08F0000E956E000E026E220E016E1C
:105A1200000E046E010E036E39EC35F007C083FFF1
:105A2200000E026E210E016E000E046E010E036E58
:105A320039EC35F0000E026E210E016E000E046E7E
:105A4200000E036E39EC35F008C083FF33EC2CF006
:105A520012000C6E3BEF2DF00950800F0D6E50EFCF
:105A62002DF00950C00F0D6E50EF2DF0800E0D6E0F
:105A720050EF2DF00C500A6E0B6A0B50000AD8B48E
:105A820045EF2DF037EF2DF00A50000AD8B42DEF74
:105A92002DF0010AD8B432EF2DF037EF2DF00D5072
:105AA20089EC2EF012000E6E0D50D8A45BEF2DF093
:105AB2005DEF2DF05FEF2DF00EC06DF00D04D8A458
:105AC20065EF2DF067EF2DF069EF2DF00EC06CF051
:105AD200020E0D18D8A470EF2DF072EF2DF074EFB6
:105AE2002DF00EC06BF0030E0D18D8A47BEF2DF035
:105AF2007DEF2DF07FEF2DF00EC06AF01200016EE7
:105B02000150D8A487EF2DF089EF2DF096EF2DF0FC
:105B12006950D8A48FEF2DF091EF2DF095EF2DF075
:105B2200020E696E96EF2DF069060150D8B49CEF13
:105B32002DF09EEF2DF0ACEF2DF0020E6918D8A4D7
:105B4200A5EF2DF0A7EF2DF0ABEF2DF0000E696E53
:105B5200ACEF2DF0692A12000A500B10D8B4B4EF42
:105B62002DF0B6EF2DF0DAEF2DF0010E0C6EBEEF38
:105B72002DF0D8900A360B360C2A0BAEC3EF2DF05F
:105B8200C5EF2DF0BAEF2DF00A50085C0B50095802
:105B9200D8A0CEEF2DF0D0EF2DF0D4EF2DF00A509B
:105BA200085E0B50095AD8900B320A320C2EC5EF00
:105BB2002DF008C008F009C009F01200000E0D6EA9
:105BC200000E0E6E0AEF2EF00E5009240B6E000E20
:105BD2000A200C6E0BC0F6FF0CC0F7FF0800F55050
:105BE20000EC2DF00E2A0E5009240B6E000E0A2036
:105BF2000C6E0BC0F6FF0CC0F7FF0800F550000951
:105C0200D8A406EF2EF008EF2EF00AEF2EF0010EC8
:105C12000D6E0D50D8B410EF2EF012EF2EF0E5EF0E
:105C22002DF01200000E066E000E056E03500410D9
:105C3200D8B41EEF2EF020EF2EF048EF2EF0010E1A
:105C4200076E28EF2EF0D89003360436072A04AEEA
:105C52002DEF2EF02FEF2EF024EF2EF0D8900536F8
:105C620006360350015C04500258D8A03BEF2EF0D8
:105C72003DEF2EF042EF2EF00350015E0450025A27
:105C82000580D89004320332072E2FEF2EF005C084
:105C920001F006C002F01200000E026E220E016E2A
:105CA200000E046E000E036E60EC36F0000E026E03
:105CB200210E016E000E046E000E036E60EC36F0D3
:105CC200000E956E59EC2CF059EC2CF059EC2CF09E
:105CD20059EC2CF059EC2CF0380E89EC2EF059ECE2
:105CE2002CF059EC2CF0380E89EC2EF059EC2CF0FB
:105CF200380E89EC2EF0380E89EC2EF0060E89EC67
:105D02002EF00C0E89EC2EF0010E89EC2EF0120012
:105D1200086E83CF07F0000E956E000E026E220E03
:105D2200016E000E046E000E036E39EC35F008C0F1
:105D320083FF000E026E210E016E000E046E010E34
:105D4200036E39EC35F0000E026E210E016E000E6C
:105D5200046E000E036E39EC35F007C083FF020EAD
:105D62000818D8B4B7EF2EF0B9EF2EF0C1EF2EF02D
:105D72000804D8A4BFEF2EF0C1EF2EF0C5EF2EF02D
:105D820059EC2CF0C7EF2EF033EC2CF01200106E11
:105D9200640E1064CFEF2EF0D1EF2EF0D3EF2EF081
:105DA200640E106E010ECB24086E096A000E0922E1
:105DB20010C00AF00B6A7AEC2CF008C011F009C08E
:105DC20012F011C001F012C002F0000E046E190EA2
:105DD200036E13EC2EF001C011F002C012F0FF0EA0
:105DE2001116030E121611C00EF012C00FF0D89049
:105DF2000F320E32D8900F320E320E50BE6E11C0DC
:105E02000EF0030E0E160E38F00BBD121200076EC6
:105E120017EF2FF0010EC26E30EF2FF0050EC26E9B
:105E220030EF2FF0090EC26E30EF2FF00750036EE5
:105E3200046A0450000AD8B421EF2FF030EF2FF09B
:105E42000350000AD8B40BEF2FF0010AD8B40FEFB9
:105E52002FF0030AD8B413EF2FF030EF2FF0C282E5
:105E6200C2B236EF2FF038EF2FF031EF2FF0C3CF61
:105E720003F0060E046ED8900332042E3CEF2FF08E
:105E82000350C4CF05F0066AD89005360636D8907E
:105E9200053606360510016E0650026E1200000E1F
:105EA2001C14246E000E1D14256E800E1E14266E08
:105EB2007F0E1F14276E2450251026102710D8A4F9
:105EC20065EF2FF067EF2FF06FEF2FF0000E1C6ED3
:105ED200000E1D6E000E1E6E000E1F6E000E2014B0
:105EE200246E000E2114256E800E2214266E7F0E63
:105EF2002314276E2450251026102710D8A484EFCF
:105F02002FF086EF2FF08EEF2FF0000E206E000E96
:105F1200216E000E226E000E236E20501C180FE11F
:105F220021501D180CE122501E1809E123501F18A0
:105F3200D8B49EEF2FF0A0EF2FF0A3EF2FF0D89060
:105F4200A4EF2FF0D8801200000E066E02BEAEEF54
:105F52002FF0ACEF2FF0B4EF2FF0016C021ED8B08F
:105F6200022A010E066E04BEBBEF2FF0B9EF2FF02E
:105F7200BFEF2FF0036C041ED8B0042A03500410A4
:105F8200D8B4C6EF2FF0C8EF2FF0ECEF2FF0010ED0
:105F9200056ED0EF2FF0D89003360436052A04AEF2
:105FA200D5EF2FF0D7EF2FF0CCEF2FF00350015C9D
:105FB20004500258D8A0E0EF2FF0E2EF2FF0E6EF06
:105FC2002FF00350015E0450025AD890043203327B
:105FD200052ED7EF2FF00650D8B4F2EF2FF0F4EFE2
:105FE2002FF0F8EF2FF0016C021ED8B0022A01C088
:105FF20001F002C002F01200000E066E04BE06EFAF
:1060020030F004EF30F00CEF30F0036C041ED8B027
:10601200042A010E066E02BE13EF30F011EF30F0CB
:1060220019EF30F0016C021ED8B0022A010E061AD6
:10603200000E086E000E076E03500410D8B424EF51
:1060420030F026EF30F04EEF30F0010E056E2EEFFD
:1060520030F0D89003360436052A04AE33EF30F020
:1060620035EF30F02AEF30F0D8900736083603507B
:10607200015C04500258D8A041EF30F043EF30F0F9
:1060820048EF30F00350015E0450025A0780D89066
:1060920004320332052E35EF30F00650D8B454EFF7
:1060A20030F056EF30F05AEF30F0076C081ED8B0DF
:1060B200082A07C001F008C002F01200B2EF30F067
:1060C200010E89EC2EF0000E096E000E2AEC2DF066
:1060D200970E096E7F0E0A6EDFEC2DF0000E096E30
:1060E200010E2AEC2DF0B30E096E7F0E0A6EDFEC64
:1060F2002DF0CBEF30F0010E89EC2EF0000E096E80
:10610200000E2AEC2DF0730E096E7F0E0A6EDFEC84
:106112002DF0000E096E010E2AEC2DF0B30E096E61
:106122007F0E0A6EDFEC2DF0CBEF30F0010E89EC22
:106132002EF0000E096E000E2AEC2DF0850E096E6F
:106142007F0E0A6EDFEC2DF0000E096E010E2AECB6
:106152002DF0B30E096E7F0E0A6EDFEC2DF0CBEF41
:1061620030F069500F6E106A1050000AD8B4BCEFBC
:1061720030F0CBEF30F00F50000AD8B461EF30F0BE
:10618200010AD8B47CEF30F0030AD8B497EF30F0AC
:10619200CBEF30F01200033404340A6E0A50D8A454
:1061A200D5EF30F0D7EF30F0E1EF30F0000E016EB6
:1061B200000E026E000E036E000E046E4EEF31F002
:1061C20001C005F002C006F003C007F004C008F0E9
:1061D200200EF1EF30F0D890083207320632053245
:1061E200E82EECEF30F00550096E038EFF0E01161B
:1061F200FF0E0216FF0E0316000E0416960E0A5E1E
:106202000ABE08EF31F006EF31F01EEF31F00A500E
:10621200800A970FD8B010EF31F012EF31F014EF7F
:1062220031F0D7EF30F0D89004320332023201322B
:106232000A3E14EF31F036EF31F01F0E0A6424EFFC
:1062420031F026EF31F02EEF31F0D7EF30F0D89069
:1062520001360236033604360A060A50D8A434EF51
:1062620031F036EF31F028EF31F00950D8B43CEF7D
:1062720031F03EEF31F046EF31F0041E031E021EF4
:10628200016C000E02220322042201C001F002C0AE
:1062920002F003C003F004C004F012000DC001F0CC
:1062A2000EC002F0270E046E100E036E13EC2EF0D9
:1062B2000150300F0FC0D9FF10C0DAFFDF6E20EEA1
:1062C20001F00F50D9261050DA22270E0B6E100E55
:1062D2000A6E0DC008F00EC009F0ADEC2DF008C03A
:1062E20001F009C002F0030E046EE80E036E13EC17
:1062F2002EF00150300FDF6E20EE02F00F50D92643
:106302001050DA22030E0B6EE80E0A6E0DC008F072
:106312000EC009F0ADEC2DF008C001F009C002F08A
:10632200000E046E640E036E13EC2EF00150300F5B
:10633200DF6E20EE03F00F50D9261050DA22000E45
:106342000B6E640E0A6E0DC008F00EC009F0ADECC3
:106352002DF008C001F009C002F0000E046E0A0E12
:10636200036E13EC2EF00150300FDF6E20EE04F0BE
:106372000F50D9261050DA220DC008F00EC009F0D5
:10638200000E0B6E0A0E0A6EADEC2DF00850300FA7
:10639200DF6E20EE05F00F50D9261050DA22000EE3
:1063A200DF6E1200000E0A6E08BEDCEF31F0DAEF8B
:1063B20031F0E6EF31F0081E071E061E056C000ED6
:1063C200062207220822010E0A6E04BEEDEF31F00A
:1063D200EBEF31F0F7EF31F0041E031E021E016CE9
:1063E200000E022203220422010E0A1A000E0B6E74
:1063F200000E0C6E000E0D6E000E0E6E0550061095
:1064020007100810D8B408EF32F00AEF32F040EF6C
:1064120032F0010E096E14EF32F0D89005360636CE
:1064220007360836092A08AE19EF32F01BEF32F0B0
:106432000EEF32F0D8900B360C360D360E36055074
:10644200015C065002580750035808500458D8A05F
:106452002DEF32F02FEF32F038EF32F00550015EBF
:106462000650025A0750035A0850045A0B80D8901B
:106472000832073206320532092E1BEF32F00A507B
:10648200D8B446EF32F048EF32F050EF32F00E1E41
:106492000D1E0C1E0B6C000E0C220D220E220BC0C8
:1064A20001F00CC002F00DC003F00EC004F01200A7
:1064B2000F0E116E91EF32F00B50112489EC2EF079
:1064C200000E126E74EF32F0125009240C6E000EA0
:1064D2000A200D6E0CC0F6FF0DC0F7FF0800F55044
:1064E20000EC2DF0122A100E0C6E000E0D6E1150E3
:1064F2000C5E000E0D5A12500E6E0F6A0C500E5C9E
:106502000F50800A106E0D50800A1058D8A08CEFE0
:1065120032F08EEF32F065EF32F01106AEEC2CF075
:106522001150D8A497EF32F099EF32F05DEF32F0CC
:10653200000E116EE1EF32F00B5089EC2EF011C01B
:1065420012F0B3EF32F0125009240C6E000E0A2042
:106552000D6E0CC0F6FF0DC0F7FF0800F55000EC01
:106562002DF0122A125009240C6E000E0A200D6E14
:106572000CC0F6FF0DC0F7FF0800F5500009D8A4C3
:10658200C5EF32F0C7EF32F0A4EF32F01250092417
:106592000C6E000E0A200D6E0CC0F6FF0DC0F7FF48
:1065A2000800F5500009D8A4D9EF32F0DBEF32F041
:1065B200DEEF32F0200E00EC2DF0112AAEEC2CF0C2
:1065C200115009240C6E000E0A200D6E0CC0F6FF4D
:1065D2000DC0F7FF0800F5500009D8A4F3EF32F020
:1065E200F5EF32F09DEF32F00B5089EC2EF0200ED9
:1065F20000EC2DF01200000E956E000E026E020EDF
:10660200016E000E046E000E036E39EC35F0000EC2
:10661200026E030E016E000E046E000E036E39EC64
:1066220035F0000E026E040E016E000E046E000EB6
:10663200036E39EC35F0000E026E050E016E000E8F
:10664200046E000E036E39EC35F0000E836E84EF9B
:1066520033F0D30E6D24F66EF76A7E0EF722080031
:10666200F5CF83FF000E026E020E016E000E046E65
:10667200010E036E39EC35F0010E6E6EA1EF33F0B0
:10668200D30E6C24F66EF76A7E0EF7220800F5CF61
:1066920083FF000E026E030E016E000E046E010EE9
:1066A200036E39EC35F0020E6E6EA1EF33F0D30EAD
:1066B2006B24F66EF76A7E0EF7220800F5CF83FF91
:1066C200000E026E040E016E000E046E010E036EC9
:1066D20039EC35F0030E6E6EA1EF33F0D30E6A245F
:1066E200F66EF76A7E0EF7220800F5CF83FF000EE2
:1066F200026E050E016E000E046E010E036E39EC81
:1067020035F03DEF33F06E50076E086A0850000A0C
:10671200D8B48EEF33F03DEF33F00750000AD8B40F
:106722002AEF33F0010AD8B441EF33F0030AD8B4A8
:1067320058EF33F0010AD8B46FEF33F03DEF33F086
:10674200120083CF06F00F0E9512000E0A6EF80E9D
:1067520093160AC001F0010E026E012AB3EF33F064
:10676200D8900236012EB1EF33F002509312070E89
:1067720081120AC001F0010E026E012AC3EF33F04A
:10678200D8900236012EC1EF33F00250FF0A811673
:10679200000E086E000E076E074A082A08BEDBEFDD
:1067A20033F0085009E10A0E075CD8A0DBEF33F0A2
:1067B200DDEF33F0CDEF33F0000E096E09C001F0CA
:1067C200010E026E012AE8EF33F0D8900236012E54
:1067D200E6EF33F0025083140009D8A4F3EF33F04C
:1067E200F5EF33F00DEF34F00A50040DF3500924A5
:1067F200016E010E026E000E036E012A04EF34F0E8
:10680200D89002360336012E01EF34F002506512A1
:106812000350661227EF34F00A50040DF350092496
:10682200016E010E026E000E036E012A1CEF34F09F
:10683200D89002360336012E19EF34F0021C046E92
:10684200031C056E0450651605506616092A030ED0
:1068520009642EEF34F030EF34F0DFEF33F00A2A20
:10686200020E0A6437EF34F039EF34F0A8EF33F058
:106872006550631807E166506418D8A443EF34F0FA
:1068820045EF34F048EF34F06F064EEF34F00A0E65
:106892006F6E65C063F066C064F06F50D8A454EFA9
:1068A20034F056EF34F05AEF34F063C067F064C04E
:1068B20068F006C083FF000E956E1200166E165029
:1068C200D8B466EF34F068EF34F08AEF34F011BEDA
:1068D2006FEF34F06DEF34F08AEF34F00EC012F047
:1068E2000FC013F010C014F011C015F0121E131EC9
:1068F200141E151E122A000E13221422152212C073
:1069020018F013C019F014C01AF015C01BF092EF62
:1069120034F00EC018F00FC019F010C01AF011C0F8
:106922001BF00E500F1010101110D8A49BEF34F072
:106932009DEF34F0A7EF34F0000E0E6E000E0F6ED6
:10694200000E106E000E116E38EF35F0960E176EB7
:10695200B1EF34F0172AD8901B321A32193218329A
:10696200000E1814126E000E1914136E000E1A1473
:10697200146EFE0E1B14156E125013101410151007
:10698200D8A4C6EF34F0C8EF34F0ABEF34F0D6EF52
:1069920034F0172A010E1826000E19221A221B2281
:1069A200D8901B321A3219321832000E1814126E95
:1069B200000E1914136E000E1A14146EFF0E1B141F
:1069C200156E1250131014101510D8A4EBEF34F0FA
:1069D200EDEF34F0CAEF34F0F5EF34F01706D8904B
:1069E200183619361A361B361ABEFAEF34F0FCEF97
:1069F20034F004EF35F0020E176002EF35F004EFC9
:106A020035F0EFEF34F017B009EF35F00BEF35F05A
:106A12000CEF35F01A9ED890173217C012F0136A95
:106A2200146A156A12C015F0146A136A126A1250B7
:106A320018121350191214501A1215501B12165014
:106A4200D8B426EF35F028EF35F030EF35F011BE2F
:106A52002FEF35F02DEF35F030EF35F01B8E18C0EB
:106A62000EF019C00FF01AC010F01BC011F0120086
:106A720002BE47EF35F0025007E1080E015CD8B0C4
:106A820045EF35F047EF35F071EF35F00350041064
:106A9200D8B44EEF35F050EF35F060EF35F001C06D
:106AA20005F0010E066E052A59EF35F0D89006362C
:106AB200052E57EF35F0065080125FEF36F001C019
:106AC20005F0010E066E052A69EF35F0D8900636FC
:106AD200052E67EF35F00650FF0A80165FEF36F09D
:106AE20002BE7FEF35F0025007E1100E015CD8B014
:106AF2007DEF35F07FEF35F0ADEF35F0F80E012682
:106B0200FF0E022203500410D8B48AEF35F08CEF46
:106B120035F09CEF35F001C005F0010E066E052A36
:106B220095EF35F0D8900636052E93EF35F00650E6
:106B320081125FEF36F001C005F0010E066E052AE4
:106B4200A5EF35F0D8900636052EA3EF35F00650A6
:106B5200FF0A81165FEF36F002BEBBEF35F002503E
:106B620007E1180E015CD8B0B9EF35F0BBEF35F094
:106B7200E9EF35F0F00E0126FF0E02220350041059
:106B8200D8B4C6EF35F0C8EF35F0D8EF35F001C014
:106B920005F0010E066E052AD1EF35F0D8900636C3
:106BA200052ECFEF35F0065082125FEF36F001C0AE
:106BB20005F0010E066E052AE1EF35F0D890063693
:106BC200052EDFEF35F00650FF0A82165FEF36F032
:106BD20002BEF7EF35F0025007E1200E015CD8B09B
:106BE200F5EF35F0F7EF35F025EF36F0E80E012638
:106BF200FF0E022203500410D8B402EF36F004EF65
:106C020036F014EF36F001C005F0010E066E052ACB
:106C12000DEF36F0D8900636052E0BEF36F0065003
:106C220083125FEF36F001C005F0010E066E052AF1
:106C32001DEF36F0D8900636052E1BEF36F00650C3
:106C4200FF0A83165FEF36F002BE33EF36F00250D2
:106C520007E1280E015CD8B031EF36F033EF36F0A1
:106C62005FEF36F0E00E0126FF0E02220350041001
:106C7200D8B43EEF36F040EF36F050EF36F001C0B8
:106C820005F0010E066E052A49EF36F0D890063659
:106C9200052E47EF36F0065084125FEF36F001C042
:106CA20005F0010E066E052A59EF36F0D890063629
:106CB200052E57EF36F00650FF0A8416120002BE68
:106CC2006EEF36F0025007E1080E015CD8B06CEFAF
:106CD20036F06EEF36F098EF36F003500410D8B469
:106CE20075EF36F077EF36F087EF36F001C005F03A
:106CF200010E066E052A80EF36F0D8900636052E74
:106D02007EEF36F00650921286EF37F001C005F0A2
:106D1200010E066E052A90EF36F0D8900636052E43
:106D22008EEF36F00650FF0A921686EF37F002BE5B
:106D3200A6EF36F0025007E1100E015CD8B0A4EFC6
:106D420036F0A6EF36F0D4EF36F003500410D8B484
:106D5200ADEF36F0AFEF36F0C1EF36F001C005F01F
:106D6200F80E0526010E066E052ABAEF36F0D89007
:106D72000636052EB8EF36F00650931286EF37F03E
:106D820001C005F0F80E0526010E066E052ACCEFAD
:106D920036F0D8900636052ECAEF36F00650FF0AB6
:106DA200931686EF37F002BEE2EF36F0025007E1AB
:106DB200180E015CD8B0E0EF36F0E2EF36F010EFDB
:106DC20037F003500410D8B4E9EF36F0EBEF36F0A9
:106DD200FDEF36F001C005F0F00E0526010E066E3D
:106DE200052AF6EF36F0D8900636052EF4EF36F087
:106DF2000650941286EF37F001C005F0F00E05261A
:106E0200010E066E052A08EF37F0D8900636052ED9
:106E120006EF37F00650FF0A941686EF37F002BEEF
:106E22001EEF37F0025007E1200E015CD8B01CEFD4
:106E320037F01EEF37F04CEF37F003500410D8B4A0
:106E420025EF37F027EF37F039EF37F001C005F0C3
:106E5200E80E0526010E066E052A32EF37F0D890AD
:106E62000636052E30EF37F00650951286EF37F0D2
:106E720001C005F0E80E0526010E066E052A44EF54
:106E820037F0D8900636052E42EF37F00650FF0A4B
:106E9200951686EF37F002BE5AEF37F0025007E13F
:106EA200280E015CD8B058EF37F05AEF37F086EF72
:106EB20037F003500410D8B461EF37F063EF37F0C6
:106EC20075EF37F001C005F0E00E0526010E066EE3
:106ED200052A6EEF37F0D8900636052E6CEF37F0A4
:106EE2000650961286EF37F001C005F0E00E052637
:106EF200010E066E052A80EF37F0D8900636052E71
:106F02007EEF37F00650FF0A961612001F50800BD4
:106F12002C6E1F501F24336E1EAE92EF37F094EF8B
:106F220037F095EF37F033803350D8B49BEF37F01A
:106F32009DEF37F0B2EF37F03328D8A4A3EF37F044
:106F4200A5EF37F0ADEF37F0000E1C6E000E1D6E90
:106F5200000E1E6E000E1F6E1E8E000E1F6EBAEF0A
:106F620037F0000E1C6E000E1D6E000E1E6E000E1F
:106F72001F6E2350800B2C1A23502324346E22AE12
:106F8200C5EF37F0C7EF37F0C8EF37F03480345031
:106F9200D8B4CEEF37F0D0EF37F0E5EF37F0342842
:106FA200D8A4D6EF37F0D8EF37F0E0EF37F0000E85
:106FB200206E000E216E000E226E000E236E228EB7
:106FC200000E236EEDEF37F0000E206E000E216EE4
:106FD200000E226E000E236E20502110221023106C
:106FE200D8A4F6EF37F0F8EF37F010EF38F0000ED4
:106FF2001C6E000E1D6E000E1E6E000E1F6E800EA9
:107002001E127F0E1F122C501F121CC01CF01DC01E
:107012001DF01EC01EF01FC01FF053EF39F0335099
:10702200D8A416EF38F018EF38F022EF38F0000E3F
:107032001C6E000E1D6E000E1E6E000E1F6E53EFB4
:1070420039F0345033C024F0256A245E000E255AEC
:107052007F0E24242D6E000E25202E6E1CC028F0DB
:107062001DC029F01EC02AF01FC02BF0000E1C6E9E
:10707200000E1D6E000E1E6E000E1F6E000E2F6E95
:10708200000E306E000E316E000E326E000E346E47
:1070920083EF38F03450D8B451EF38F053EF38F072
:1070A2006AEF38F0D890283629362A362B36D8900F
:1070B2001C361D361E361F3632AE62EF38F064EFD4
:1070C20038F065EF38F01C80D8902F3630363136E4
:1070D20032362050285C2150295822502A582350F9
:1070E2002B58D8A077EF38F079EF38F082EF38F0EC
:1070F200328C2050285E2150295A22502A5A23507D
:107102002B5A342A190E346489EF38F08BEF38F099
:107112004BEF38F0285029102A102B10D8B494EFD6
:1071220038F096EF38F0AEEF38F02F80AEEF38F04F
:10713200D8901C361D361E361F3632AEA3EF38F0FD
:10714200A5EF38F0A6EF38F01C80D8902F363036F5
:10715200313632362D06D8A02E061EAEB3EF38F0E9
:10716200B5EF38F099EF38F0000E346E32AEBCEF66
:1071720038F0BEEF38F0E2EF38F0FF0E2F14246E35
:10718200FF0E3014256EFF0E3114266E7F0E321460
:10719200276E2450251026102710D8B4D3EF38F0CC
:1071A200D5EF38F0D9EF38F0010E346EE2EF38F057
:1071B2001CA0DEEF38F0E0EF38F0E2EF38F0D5EF68
:1071C20038F03450D8B4E8EF38F0EAEF38F00EEF88
:1071D20039F0010E1C26000E1D221E221F221FA0A6
:1071E200F5EF38F0F7EF38F00EEF39F01CC024F06D
:1071F2001DC025F01EC026F01FC027F027342732FD
:1072020026322532243224C01CF025C01DF026C0AF
:107212001EF027C01FF02D4A2E2A2EBE19EF39F07C
:107222002E5008E12D28D8A019EF39F01BEF39F0C4
:1072320026EF39F0000E2E6E2D68000E1C6E000E29
:107242001D6E000E1E6E000E1F6E2EBE33EF39F045
:107252002E5006E12D04D8B031EF39F033EF39F07A
:1072620041EF39F0000E2E6E000E2D6E000E1C6ED8
:10727200000E1D6E000E1E6E000E1F6E000E2C6E96
:107282002DC033F033A048EF39F04AEF39F04DEF1B
:1072920039F01E8E4EEF39F01E9ED89033301F6E9D
:1072A20004EF38F012003850800B416E3850382409
:1072B200476E37AE5FEF39F061EF39F062EF39F0C8
:1072C20047804750D8B468EF39F06AEF39F07DEF64
:1072D20039F04728D8A470EF39F072EF39F07AEF1D
:1072E20039F0000E356E000E366E000E376E000E4F
:1072F200386E378E85EF39F0000E356E000E366E21
:10730200000E376E000E386E3C50800B411A3C5016
:107312003C24466E3BAE90EF39F092EF39F093EF9A
:1073220039F046804650D8B499EF39F09BEF39F0E6
:10733200AEEF39F04628D8A4A1EF39F0A3EF39F027
:10734200ABEF39F0000E396E000E3A6E000E3B6E56
:10735200000E3C6E3B8EB6EF39F0000E396E000E19
:107362003A6E000E3B6E000E3C6E4650D8B4BCEF37
:1073720039F0BEEF39F0C6EF39F04750D8A4C4EF68
:1073820039F0C6EF39F0D0EF39F0000E356E000E4D
:10739200366E000E376E000E386E68EF3BF03B50D3
:1073A2003502F3CF4CF0F4CF4DF04C50426E436AAD
:1073B200446A456A4D50486E496A4A6A4B6A3A5075
:1073C2003602F3CF4CF0F4CF4DF04C504226000E73
:1073D2004322442245224D504826000E49224A2289
:1073E2004B2239503702F3CF4CF0F4CF4DF04C50D2
:1073F2004226000E4322442245224D504826000ECA
:1074020049224A224B2244C045F043C044F042C0C4
:1074120043F0426A39503602F3CF4CF0F4CF4DF0CC
:107422004C5042264D504322000E4422000E45226B
:107432003A503502F3CF4CF0F4CF4DF04C50422687
:107442004D504322000E4422000E452244C045F016
:1074520043C044F042C043F0426A39503502F3CF90
:107462004CF0F4CF4DF04C5042264D504322000ECA
:107472004422000E45223B503602F3CF4CF0F4CFAB
:107482004DF04C5048264D504922000E4A22000E23
:107492004B223A503702F3CF4CF0F4CF4DF04C5020
:1074A20048264D504922000E4A22000E4B223B50E4
:1074B2003702F3CF4CF0F4CF4DF04C503D6E4D50AF
:1074C2003E6E3F6A406A3FC040F03EC03FF03DC062
:1074D2003EF03D6A3D5048263E5049223F504A22E6
:1074E20040504B2242C03DF043C03EF044C03FF00A
:1074F20045C040F0190E83EF3AF0D89040323F3247
:107502003E323D32E82E7EEF3AF03D5048263E5064
:1075120049223F504A2240504B2244C045F043C0CA
:1075220044F042C043F0426A465047C03DF03E6AD2
:107532003D26000E3E22820E3D244C6EFF0E3E2062
:107542004D6EB9EF3AF0D890483649364A364B3646
:1075520045AEAEEF3AF0B0EF3AF0B1EF3AF0488014
:10756200D89042364336443645364C06D8A04D06AE
:107572004AAEBEEF3AF0C0EF3AF0A4EF3AF0000E96
:10758200466E45AEC7EF3AF0C9EF3AF0EDEF3AF08A
:10759200FF0E42143D6EFF0E43143E6EFF0E441466
:1075A2003F6E7F0E4514406E3D503E103F1040101E
:1075B200D8B4DEEF3AF0E0EF3AF0E4EF3AF0010E41
:1075C200466EEDEF3AF048A0E9EF3AF0EBEF3AF011
:1075D200EDEF3AF0E0EF3AF04650D8B4F3EF3AF07C
:1075E200F5EF3AF019EF3BF0010E4826000E492262
:1075F2004A224B224BA000EF3BF002EF3BF019EF87
:107602003BF048C03DF049C03EF04AC03FF04BC09D
:1076120040F0403440323F323E323D323DC048F0CD
:107622003EC049F03FC04AF040C04BF04C4A4D2AA0
:107632004DBE24EF3BF04D5008E14C28D8A024EF7A
:107642003BF026EF3BF030EF3BF0000E486E000EB1
:10765200496E800E4A6E7F0E4B6E5EEF3BF04DBE62
:107662003DEF3BF04D5006E14C04D8B03BEF3BF010
:107672003DEF3BF049EF3BF0000E486E000E496EC5
:10768200000E4A6E000E4B6E000E416E5EEF3BF036
:107692004CC047F0FF0E4816FF0E49167F0E4A16E1
:1076A200000E4B1647A058EF3BF05AEF3BF05BEF52
:1076B2003BF04A8ED89047304B6E41504B1248C037
:1076C20035F049C036F04AC037F04BC038F01200EE
:1076D2004DEC2EF019EC2CF08DEC2CF04CEC2CF047
:1076E200000EC16E949A9494000E096E000E2AEC5C
:1076F2002DF0DA0E096E7F0E0A6EDFEC2DF0000E11
:10770200096E010E2AEC2DF0A90E096E7F0E0A6E8B
:10771200DFEC2DF0A2EC33F01EEC2CF001AC94EF78
:107722003BF096EF3BF08BEF3BF01EEC2CF001C0F0
:1077320061F002C062F0000E696E010E89EC2EF05B
:10774200000E096E000E2AEC2DF0970E096E7F0EC8
:107752000A6EDFEC2DF0000E096E010E2AEC2DF000
:10776200B30E096E7F0E0A6EDFEC2DF0A2EC33F041
:107772001EEC2CF06150011809E162500218D8B4D5
:10778200C5EF3BF0C7EF3BF0B7EF3BF01EEC2CF040
:1077920001C061F002C062F061A4D2EF3BF0D4EF0D
:1077A2003BF0D9EF3BF0000E80EC2DF05FEC30F0B7
:1077B20062A4DEEF3BF0E0EF3BF0E5EF3BF0010EC1
:1077C20080EC2DF05FEC30F061ACEAEF3BF0ECEFD7
:1077D2003BF0B7EF3BF04AEF3FF0C28082843FECD0
:1077E2002CF0000EC8EC2EF0010E89EC2EF0000EEB
:1077F200096E010E2AEC2DF0CA0E096E7F0E0A6E7A
:10780200DFEC2DF0A2EC33F0FCEC32F0000E08ECD1
:107812002FF001C05FF002C060F050505F1809E124
:1078220051506018D8B418EF3CF01AEF3CF06FEFEB
:107832003CF0010E0D6E100E54EC2DF0E80E5F5C64
:10784200030E6058D8A028EF3CF02AEF3CF036EF48
:107852003CF0020E0D6E090E54EC2DF0030E0D6E6F
:10786200090E54EC2DF05EEF3CF0020E0D6E5FC07F
:1078720001F060C002F0000E046E640E036E13ECA1
:107882002EF0015054EC2DF0030E0D6E000E046E1E
:107892000A0E036E5FC001F060C002F013EC2EF01E
:1078A20001C008F002C009F0000E0B6E0A0E0A6E4B
:1078B200ADEC2DF0085054EC2DF05FC001F060C02B
:1078C20002F0000E046E0A0E036E13EC2EF001504D
:1078D200C8EC2EF05FC050F060C051F0020E08EC10
:1078E2002FF001C008F002C009F0000E0B6E0A0E64
:1078F2000A6E7AEC2CF0D89009304E6E08305F6E2A
:107902004EC060F05FC00DF060C00EF0580E0F6EFA
:10791200000E106E4FEC31F01EEC2CF0615001188D
:1079220009E162500218D8B499EF3CF09BEF3CF0A9
:10793200E5EF3CF01EEC2CF001C061F002C062F0F9
:1079420061A2A6EF3CF0A8EF3CF0B2EF3CF023ECD2
:107952002CF08294829AD7EC2CF0000EC26E63EF68
:107962003FF061AAB7EF3CF0B9EF3CF0BBEF3CF05F
:10797200200E821A62A2C0EF3CF0C2EF3CF0E5EFAB
:107982003CF0D7EC2CF0010E89EC2EF02A0E096E99
:107992007F0E0A6E800E0B6E59EC32F0460E096EA7
:1079A2007F0E0A6EC00E0B6E59EC32F0010E89EC9E
:1079B2002EF0000E096E010E2AEC2DF0CA0E096E91
:1079C2007F0E0A6EDFEC2DF0000E096E000E2AEC1F
:1079D2002DF0F50E096E7F0E0A6EDFEC2DF05A5077
:1079E20000EC2DF05B5000EC2DF02C0E00EC2DF095
:1079F2005C5000EC2DF06F0E00EC2DF0430E00EC0D
:107A02002DF003EF3CF0000E096E000E2AEC2DF073
:107A1200610E096E7F0E0A6EDFEC2DF0000E096E0C
:107A2200010E2AEC2DF0BA0E096E7F0E0A6EDFEC03
:107A32002DF0C28082843FEC2CF0000EC8EC2EF0B8
:107A4200010E89EC2EF0000E096E010E2AEC2DF0CB
:107A5200CA0E096E7F0E0A6EDFEC2DF0A2EC33F037
:107A6200FCEC32F0000E08EC2FF001C05FF002C017
:107A720060F05FC001F060C002F0000E046E190EEB
:107A8200036E13EC2EF00150280F5E6E500E5E64F2
:107A92004DEF3DF04FEF3DF051EF3DF0500E5E6E79
:107AA200010E0D6E5EC001F0026A000E046E0A0E37
:107AB200036EFDEC2FF0015054EC2DF0020E0D6E12
:107AC2005EC001F0026A000E046E0A0E036EA5EC9F
:107AD2002FF0015054EC2DF0030E0D6E110E54ECEC
:107AE2002DF0020E08EC2FF001C008F002C009F0E0
:107AF200000E0B6E0A0E0A6E7AEC2CF0D89009304A
:107B02004E6E08305F6E4EC060F05FC00DF060C018
:107B12000EF0580E0F6E000E106E4FEC31F05FC07B
:107B220001F060C002F0000E046E0A0E036E13EC48
:107B32002EF001C05FF002C060F0605009E11E0E3D
:107B42005F5CD8A0A7EF3DF0A9EF3DF02FEF3EF02C
:107B52005EC008F0096AFF0E0B6EFE0E0A6E7AEC2A
:107B62002CF0A00E0826000E092208C00EF009C053
:107B72000FF0000E0FBEFF0E106E116E010E5FECC5
:107B820034F00EC035F00FC036F010C037F011C01F
:107B920038F05E500E6E0F6A106A116A000E5FECCA
:107BA20034F00EC020F00FC021F010C022F011C03E
:107BB20023F05FC00EF060C00FF0106A116A000E71
:107BC2005FEC34F00EC01CF00FC01DF010C01EF0B0
:107BD20011C01FF087EC37F01CC039F01DC03AF01D
:107BE2001EC03BF01FC03CF054EC39F035C053F0DE
:107BF20036C054F037C055F038C056F057500E6EAC
:107C02000F6A106A116A010E5FEC34F00EC01CF0AC
:107C12000FC01DF010C01EF011C01FF053C020F0A5
:107C220054C021F055C022F056C023F050EC2FF082
:107C3200D8B01EEF3EF020EF3EF02FEF3EF053C0E3
:107C420001F054C002F055C003F056C004F0CCEC71
:107C520030F00150576E5750C8EC2EF01EEC2CF04D
:107C62006150011809E162500218D8B43BEF3EF0AE
:107C72003DEF3EF083EF3EF01EEC2CF001C061F0D0
:107C820002C062F061A248EF3EF04AEF3EF050EFD0
:107C92003EF023EC2CF08294829AACEF3CF061AA85
:107CA20055EF3EF057EF3EF059EF3EF0200E821AAC
:107CB20062A25EEF3EF060EF3EF083EF3EF0D7EC63
:107CC2002CF0010E89EC2EF0090E096E7F0E0A6E61
:107CD200800E0B6E59EC32F0E50E096E7E0E0A6EC6
:107CE200C00E0B6E59EC32F0010E89EC2EF0000E34
:107CF200096E010E2AEC2DF0CA0E096E7F0E0A6E75
:107D0200DFEC2DF0000E096E000E2AEC2DF0F50EC0
:107D1200096E7F0E0A6EDFEC2DF05A5000EC2DF04A
:107D22005B5000EC2DF02C0E00EC2DF05C5000ECC2
:107D32002DF06F0E00EC2DF0430E00EC2DF02FEF26
:107D42003DF0C280C286000E956E000E836E010E5B
:107D520089EC2EF0000E096E010E2AEC2DF0E80ED1
:107D6200096E7F0E0A6EDFEC2DF0522AA2EC33F080
:107D7200140E5264BFEF3EF0C1EF3EF0D2EF3EF080
:107D820083A0C6EF3EF0C8EF3EF0CCEF3EF0800E8F
:107D9200836ECEEF3EF0D890833283CF81FF000E08
:107DA200526E020E08EC2FF001C008F002C009F07A
:107DB200000E0B6E0A0E0A6E7AEC2CF0D890093087
:107DC2004E6E08305F6E4EC060F05FC00DF060C056
:107DD2000EF0580E0F6E000E106E4FEC31F01EECCE
:107DE2002CF06150011809E162500218D8B4FCEF7E
:107DF2003EF0FEEF3EF02BEF3FF01EEC2CF001C008
:107E020061F002C062F061A209EF3FF00BEF3FF0B8
:107E12000EEF3FF0829AAEEF3CF061AA13EF3FF013
:107E220015EF3FF02BEF3FF0200E821A82AA1CEFD3
:107E32003FF01EEF3FF020EF3FF0800E836E82BADC
:107E420025EF3FF027EF3FF029EF3FF0000E836E62
:107E520083CF81FF000E096E000E2AEC2DF0F50E85
:107E6200096E7F0E0A6EDFEC2DF05A5000EC2DF0F9
:107E72005B5000EC2DF02C0E00EC2DF05C5000EC71
:107E82002DF06F0E00EC2DF0430E00EC2DF0B6EF4E
:107E92003EF069504E6E4F6A4F50000AD8B454EF0C
:107EA2003FF063EF3FF04E50000AD8B4EEEF3BF0E4
:107EB200010AD8B404EF3DF0030AD8B4A2EF3EF0B1
:107EC20063EF3FF05FEC30F0B7EF3BF000EF00F014
:107ED200003F065B4F666D7D077F6F777C395E7969
:107EE20071ED63646566696E6972206F20736574F3
:107EF20020706F696E742064652074656D706572A0
:107F0200617475726100005574696C697A65206FDD
:107F120020706F74656E63696F6D6574726F205047
:107F220031207061726100005574696C697A652054
:107F32006F20706F74656E63696F6D6574726F2008
:107F4200503100007061726120726567756C6172F8
:107F520020612076656C6F6369646164650000501E
:107F620072657373696F6E6520342F3620702F002F
:107F72000034203C2D20204175746F2E202D3E2090
:107F820036000034203C2D204465736C6967202D37
:107F92003E2036000034203C2D204D616E75616C10
:107FA200202D3E2036000020206D6F646F2020209F
:107FB2002020352D4F4B0000646566696E69722082
:107FC2006120746D702E000020372D566F6C746125
:107FD2007220203F2D39000053656C6563696F6E16
:107FE2006520756D000020372D566F6C746172200C
:0E7FF2002000002054656D702E20200000003D
:020000040020DA
:08000000FFFFFFFFFFFFFFFF00
:020000040030CA
:0E000000FF071F1FFF8385FF0FC00FE00F409B
:00000001FF
